:100000000C94FA000C940A010C940A010C940A0155
:100010000C940A010C940A010C940A010C940A0134
:100020000C940A010C940A010C940A010C940A0124
:100030000C940A010C940A010C940A010C940A0114
:100040000C940A010C940A010C940A010C940A0104
:100050000C940A010C940A010C940A010C940A01F4
:100060000C940A010C940A010C940A010C940A01E4
:100070000C940A010C940A010C940A010C940A01D4
:100080000C940A010C940A010C940A010C940A01C4
:100090000C940A010C940A010C940A010C940A01B4
:1000A0000C940A010C940A010C940A010C940A01A4
:1000B0000C940A010C940A010C940A010C940A0194
:1000C0000C940A010C940A010C940A010C940A0184
:1000D0000C940A010C940A010C940A010C940A0174
:1000E0000C940A010C940A010C940A010C940A0164
:1000F0000C940A010C940A010C940A010C940A0154
:100100000C940A010C940A010C940A010C940A0143
:100110000C940A010C940A010C940A010C940A0133
:100120000C940A010C940A010C940A010C940A0123
:100130000C940A010C940A010C940A010C940A0113
:100140000C940A010C940A010C940A010C940A0103
:100150000C940A010C940A010C940A010C940A01F3
:100160000C940A010C940A010C940A010C940A01E3
:100170000C940A010C940A010C940A010C940A01D3
:100180000C940A010C940A010C940A010C940A01C3
:100190000C940A010C940A010C940A010C940A01B3
:1001A0000C940A010C940A010C940A010C940A01A3
:1001B0000C940A010C940A010C940A010C940A0193
:1001C0000C940A010C940A010C940A010C940A0183
:1001D0000C940A010C940A010C940A010C940A0173
:1001E0000C940A010C940A010C940A010C940A0163
:1001F0000C940A0111241FBECFEFDFE3DEBFCDBF99
:1002000000E00CBF18BE19BE1ABE1BBE0E947001D2
:100210000C94A2010C940000E0E6F6E080818F606F
:1002200080838FE086830895E0E8F6E08FEF808397
:100230008093B00080898064808B16820895E0EE00
:10024000F7E080818D7F808381898861818B08952B
:10025000E0E6F6E080818F7E808384898061848BF4
:100260000895E0E6F6E080818F6080838FE08683EA
:10027000A0E8B6E08FEF8C938093B00050968C91FD
:100280005097806450968C93509716961C92A0EECF
:10029000B7E08C918D7F8C9351968C9151978861AA
:1002A00051968C9380818F7E808384898061848B3A
:1002B0000895E0E8F6E09FE0968385830895E0E600
:1002C000F6E09FE096838F7085830895811104C0C6
:1002D00080EF80938606089580EF809385060895C9
:1002E0000E94310190E020E04FE030EF8091E8077C
:1002F000992361F081FF90E08091680684FF1BC024
:10030000309385068091E8079111F4CF81FFF4CFF7
:100310002F30A1F02F5F922F9F70822F409366069F
:1003200090936506409386068093850691E08091C0
:10033000680684FDE5CF30938606D8CF80E090E054
:0803400020E0ECCFF894FFCFA0
:00000001FF
