:100000000C94FA000C940A010C940A010C940A0155
:100010000C940A010C940A010C940A010C940A0134
:100020000C940A010C940A010C940A010C940A0124
:100030000C940A010C940A010C940A010C940A0114
:100040000C940A010C940A010C940A010C940A0104
:100050000C940A010C940A010C940A010C940A01F4
:100060000C940A010C940A010C940A010C940A01E4
:100070000C940A010C940A010C940A010C940A01D4
:100080000C940A010C940A010C940A010C940A01C4
:100090000C940A010C940A010C940A010C940A01B4
:1000A0000C940A010C940A010C940A010C940A01A4
:1000B0000C940A010C940A010C940A010C940A0194
:1000C0000C940A010C940A010C940A010C940A0184
:1000D0000C940A010C940A010C940A010C940A0174
:1000E0000C940A010C940A010C940A010C940A0164
:1000F0000C940A010C940A010C940A010C940A0154
:100100000C940A010C940A010C940A010C940A0143
:100110000C940A010C940A010C940A010C940A0133
:100120000C940A010C940A010C940A010C940A0123
:100130000C940A010C940A010C940A010C940A0113
:100140000C940A010C940A010C940A010C940A0103
:100150000C940A010C940A010C940A010C940A01F3
:100160000C940A010C940A010C940A010C940A01E3
:100170000C940A010C940A010C940A010C940A01D3
:100180000C940A010C940A010C940A010C940A01C3
:100190000C940A010C940A010C940A010C940A01B3
:1001A0000C940A010C940A010C940A010C940A01A3
:1001B0000C940A010C940A010C940A010C940A0193
:1001C0000C940A010C940A010C940A010C940A0183
:1001D0000C940A010C940A010C940A010C940A0173
:1001E0000C940A010C940A010C940A010C940A0163
:1001F0000C940A0111241FBECFEFDFE3DEBFCDBF99
:1002000000E00CBF18BE19BE1ABE1BBE0E948C01B6
:100210000C94BD010C940000E0E8F6E08FEF8083C1
:100220008093B00090899064908B8683E0E6F6E03E
:1002300090819760908386838081877F8083838984
:100240008061838BE0EEF7E080818D7F8083818900
:100250008861818B0895E0E8F6E08FEF80838093DA
:10026000B00090899064908B86830895E0E6F6E074
:100270008081876080838FEF86830895E0E6F6E0D3
:100280008081877F808383898061838B0895E0EEFE
:10029000F7E080818D7F808381898861818B0895DB
:1002A000E0E8F6E09FE096838583089597E09093D9
:1002B0006606992787FD909520E030E068E070E0C1
:1002C000F1E0E2E00BC0F0936506E0936506E09391
:1002D00066062F5F3F4F2430310571F0AB01022ECF
:1002E00002C0559547950A94E2F748235923452BB8
:1002F00051F7F0936606E9CF84E08093650680931A
:1003000066060895811104C080EF809386060895E3
:1003100080EF8093850608950E940C0180E00E9482
:10032000560120E0C0E00FE0D0EF8091E8072223E3
:1003300061F081FD20E09091680693FF18C0D09392
:1003400085068091E8072111F4CF81FDF4CFCF30ED
:1003500089F0CF5F1C2F8C2F0E94560100938606D8
:100360001093850621E09091680693FDE8CFD09325
:0E0370008606DBCF10E0C0E0EECFF894FFCFA2
:00000001FF
