:100000000C94FA000C9412010C9412010C9412013D
:100010000C9412010C9412010C9412010C94120114
:100020000C9412010C9412010C9412010C94120104
:100030000C9412010C9412010C9412010C941201F4
:100040000C9412010C9412010C9412010C941201E4
:100050000C9412010C9412010C9412010C941201D4
:100060000C9412010C9412010C9412010C941201C4
:100070000C9412010C9412010C9412010C941201B4
:100080000C9412010C9412010C9412010C941201A4
:100090000C9412010C9412010C9412010C94120194
:1000A0000C9412010C9412010C9412010C94120184
:1000B0000C9412010C9412010C9412010C94120174
:1000C0000C9412010C9412010C9412010C94120164
:1000D0000C9412010C9412010C9412010C94120154
:1000E0000C9412010C9412010C9412010C94120144
:1000F0000C9412010C9412010C9412010C94120134
:100100000C9412010C9412010C9412010C94120123
:100110000C9412010C9412010C9412010C94120113
:100120000C9412010C9412010C9412010C94120103
:100130000C9412010C9412010C9412010C941201F3
:100140000C9412010C9412010C9412010C941201E3
:100150000C9412010C9412010C9412010C941201D3
:100160000C9412010C9412010C9412010C941201C3
:100170000C9412010C9412010C9412010C941201B3
:100180000C9412010C9412010C9412010C941201A3
:100190000C9412010C9412010C9412010C94120193
:1001A0000C9412010C9412010C9412010C94120183
:1001B0000C9412010C9412010C9412010C94120173
:1001C0000C9412010C9412010C9412010C94120163
:1001D0000C9412010C9412010C9412010C94120153
:1001E0000C9412010C9412010C9412010C94120143
:1001F0000C94120111241FBECFEFDFE3DEBFCDBF91
:1002000000E00CBF18BE19BE1ABE1BBE20E2A0E063
:10021000B0E201C01D92A430B207E1F70E941E01B6
:100220000C948B010C9400002FE78AE196E021509A
:1002300080409040E1F700C0000008958FEF809368
:10024000800690EF909384062FE73AE146E0215034
:1002500030404040E1F700C000002FE020938506C9
:100260002FE73AE146E0215030404040E1F700C03E
:100270000000909386069FE72AE136E091502040E7
:100280003040E1F700C00000809387064FE79AE115
:1002900026E0415090402040E1F700C000008093EC
:1002A00087063FE74AE186E0315040408040E1F771
:1002B00000C000008AEA809387069FE72AE136E0C3
:1002C000915020403040E1F700C000008093870645
:1002D0004FE79AE126E0415090402040E1F700C00E
:1002E0000000809387063FE74AE196E031504040A6
:1002F0009040E1F700C00000809387068FEF809365
:1003000087062FE73AE146E0215030404040E1F7D0
:0A03100000C00000F4CFF894FFCF06
:00000001FF
