:100000000C94FA000C940A010C940A010C940A0155
:100010000C940A010C940A010C940A010C940A0134
:100020000C940A010C940A010C940A010C940A0124
:100030000C940A010C940A010C940A010C940A0114
:100040000C940A010C940A010C940A010C940A0104
:100050000C940A010C940A010C940A010C940A01F4
:100060000C940A010C940A010C940A010C940A01E4
:100070000C940A010C940A010C940A010C940A01D4
:100080000C940A010C940A010C940A010C940A01C4
:100090000C940A010C940A010C940A010C940A01B4
:1000A0000C940A010C940A010C940A010C940A01A4
:1000B0000C940A010C940A010C940A010C940A0194
:1000C0000C940A010C940A010C940A010C940A0184
:1000D0000C940A010C940A010C940A010C940A0174
:1000E0000C940A010C940A010C940A010C940A0164
:1000F0000C940A010C940A010C940A010C940A0154
:100100000C940A010C940A010C940A010C940A0143
:100110000C940A010C940A010C940A010C940A0133
:100120000C940A010C940A010C940A010C940A0123
:100130000C940A010C940A010C940A010C940A0113
:100140000C940A010C940A010C940A010C940A0103
:100150000C940A010C940A010C940A010C940A01F3
:100160000C940A010C940A010C940A010C940A01E3
:100170000C940A010C940A010C940A010C940A01D3
:100180000C940A010C940A010C940A010C940A01C3
:100190000C940A010C940A010C940A010C940A01B3
:1001A0000C940A010C940A010C940A010C940A01A3
:1001B0000C940A010C940A010C940A010C940A0193
:1001C0000C940A010C940A010C940A010C940A0183
:1001D0000C940A010C940A010C940A010C940A0173
:1001E0000C940A010C940A010C940A010C940A0163
:1001F0000C940A0111241FBECFEFDFE3DEBFCDBF99
:1002000000E00CBF18BE19BE1ABE1BBE0E94CA0178
:100210000C9434020C9400000F93CF93DF931F9241
:10022000CDB7DEB72FB72983F8941BBEFC0108EDCC
:1002300004BF608389818FBF0F90DF91CF910F91B1
:100240000895611106C090E0842B892B80935200A1
:10025000089590E2842B892B8093520008956F714A
:10026000682BE0E5F0E065830895E0E5F0E02081AB
:10027000982F9095922390839081892308950F93CE
:10028000CF93DF931F92CDB7DEB79FB79983F894D2
:100290001BBE682B81E490E0FC0108ED04BF608385
:1002A00089818FBF0F90DF91CF910F9108950F93A8
:1002B000CF93DF931F92CDB7DEB7A0E4B0E09C915F
:1002C0002FB72983F8941BBE987F982B20E430E049
:1002D000F90108ED04BF908399819FBF9C91892308
:1002E0000F90DF91CF910F910895E0E4F0E09381BA
:1002F000917F9160982B9383089530915600282F19
:10030000982F90959323611101C020E0922B909338
:100310005600813049F0823009F0089580916000E4
:10032000816080936000089580916800816080936F
:10033000680008950F93CF93DF931F92CDB7DEB778
:100340008FB78983F8941BBE23E083E590E0FC011E
:1003500008ED04BF208389818FBF0F90DF91CF917B
:100360000F9108950F93CF93DF931F92CDB7DEB710
:100370008FB78983F8941BBE21E082E490E0FC01F2
:1003800008ED04BF208389818FBF0F90DF91CF914B
:100390000F9108959FEF9093B00080917006877C35
:1003A000886180937006909362069093B00080E419
:1003B000809390069093810681EA8093840617E0EB
:1003C000EE24E39482E0F82E04E090EFD92EC1E20F
:1003D000DEE48091680680FD13C08091500081604A
:1003E000809350008091510080FFFCCF80E00E94FC
:1003F000570186E00E94350110938606E09285063B
:100400008091680681FD13C08091500082608093C6
:1004100050008091510081FFFCCF81E00E94570184
:1004200085E00E94350110938606F0928506809142
:10043000680682FD13C08091500084608093500054
:100440008091510082FFFCCF82E00E94570183E03F
:100450000E9435011093860600938506219709F0C6
:0C046000B8CFD0928706B3CFF894FFCF3E
:00000001FF
